{
  "_format": "hh-sol-artifact-1",
  "contractName": "LotyMarketplace",
  "sourceName": "contracts/LotyMarketplace.sol",
  "abi": [
    {
      "inputs": [],
      "stateMutability": "nonpayable",
      "type": "constructor"
    },
    {
      "anonymous": false,
      "inputs": [
        {
          "indexed": true,
          "internalType": "address",
          "name": "owner",
          "type": "address"
        },
        {
          "indexed": true,
          "internalType": "address",
          "name": "approved",
          "type": "address"
        },
        {
          "indexed": true,
          "internalType": "uint256",
          "name": "tokenId",
          "type": "uint256"
        }
      ],
      "name": "Approval",
      "type": "event"
    },
    {
      "anonymous": false,
      "inputs": [
        {
          "indexed": true,
          "internalType": "address",
          "name": "owner",
          "type": "address"
        },
        {
          "indexed": true,
          "internalType": "address",
          "name": "operator",
          "type": "address"
        },
        {
          "indexed": false,
          "internalType": "bool",
          "name": "approved",
          "type": "bool"
        }
      ],
      "name": "ApprovalForAll",
      "type": "event"
    },
    {
      "anonymous": false,
      "inputs": [
        {
          "indexed": true,
          "internalType": "address",
          "name": "from",
          "type": "address"
        },
        {
          "indexed": true,
          "internalType": "address",
          "name": "to",
          "type": "address"
        },
        {
          "indexed": true,
          "internalType": "uint256",
          "name": "tokenId",
          "type": "uint256"
        }
      ],
      "name": "Transfer",
      "type": "event"
    },
    {
      "inputs": [
        {
          "internalType": "address",
          "name": "to",
          "type": "address"
        },
        {
          "internalType": "uint256",
          "name": "tokenId",
          "type": "uint256"
        }
      ],
      "name": "approve",
      "outputs": [],
      "stateMutability": "nonpayable",
      "type": "function"
    },
    {
      "inputs": [
        {
          "internalType": "address",
          "name": "owner",
          "type": "address"
        }
      ],
      "name": "balanceOf",
      "outputs": [
        {
          "internalType": "uint256",
          "name": "",
          "type": "uint256"
        }
      ],
      "stateMutability": "view",
      "type": "function"
    },
    {
      "inputs": [
        {
          "internalType": "string",
          "name": "_tokenURI",
          "type": "string"
        },
        {
          "internalType": "uint256",
          "name": "_price",
          "type": "uint256"
        }
      ],
      "name": "createToken",
      "outputs": [
        {
          "internalType": "uint256",
          "name": "",
          "type": "uint256"
        }
      ],
      "stateMutability": "payable",
      "type": "function"
    },
    {
      "inputs": [
        {
          "internalType": "uint256",
          "name": "_tokenId",
          "type": "uint256"
        }
      ],
      "name": "executeSale",
      "outputs": [],
      "stateMutability": "payable",
      "type": "function"
    },
    {
      "inputs": [],
      "name": "getAllNFTs",
      "outputs": [
        {
          "components": [
            {
              "internalType": "uint256",
              "name": "tokenId",
              "type": "uint256"
            },
            {
              "internalType": "address payable",
              "name": "owner",
              "type": "address"
            },
            {
              "internalType": "address payable",
              "name": "seller",
              "type": "address"
            },
            {
              "internalType": "uint256",
              "name": "price",
              "type": "uint256"
            },
            {
              "internalType": "bool",
              "name": "curreltlyListed",
              "type": "bool"
            }
          ],
          "internalType": "struct LotyMarketplace.ListedToken[]",
          "name": "",
          "type": "tuple[]"
        }
      ],
      "stateMutability": "view",
      "type": "function"
    },
    {
      "inputs": [
        {
          "internalType": "uint256",
          "name": "tokenId",
          "type": "uint256"
        }
      ],
      "name": "getApproved",
      "outputs": [
        {
          "internalType": "address",
          "name": "",
          "type": "address"
        }
      ],
      "stateMutability": "view",
      "type": "function"
    },
    {
      "inputs": [],
      "name": "getCurrentToken",
      "outputs": [
        {
          "internalType": "uint256",
          "name": "",
          "type": "uint256"
        }
      ],
      "stateMutability": "view",
      "type": "function"
    },
    {
      "inputs": [],
      "name": "getLatestIdToListenToken",
      "outputs": [
        {
          "components": [
            {
              "internalType": "uint256",
              "name": "tokenId",
              "type": "uint256"
            },
            {
              "internalType": "address payable",
              "name": "owner",
              "type": "address"
            },
            {
              "internalType": "address payable",
              "name": "seller",
              "type": "address"
            },
            {
              "internalType": "uint256",
              "name": "price",
              "type": "uint256"
            },
            {
              "internalType": "bool",
              "name": "curreltlyListed",
              "type": "bool"
            }
          ],
          "internalType": "struct LotyMarketplace.ListedToken",
          "name": "",
          "type": "tuple"
        }
      ],
      "stateMutability": "view",
      "type": "function"
    },
    {
      "inputs": [],
      "name": "getListPrice",
      "outputs": [
        {
          "internalType": "uint256",
          "name": "",
          "type": "uint256"
        }
      ],
      "stateMutability": "view",
      "type": "function"
    },
    {
      "inputs": [
        {
          "internalType": "uint256",
          "name": "_tokenId",
          "type": "uint256"
        }
      ],
      "name": "getListedForTokenId",
      "outputs": [
        {
          "components": [
            {
              "internalType": "uint256",
              "name": "tokenId",
              "type": "uint256"
            },
            {
              "internalType": "address payable",
              "name": "owner",
              "type": "address"
            },
            {
              "internalType": "address payable",
              "name": "seller",
              "type": "address"
            },
            {
              "internalType": "uint256",
              "name": "price",
              "type": "uint256"
            },
            {
              "internalType": "bool",
              "name": "curreltlyListed",
              "type": "bool"
            }
          ],
          "internalType": "struct LotyMarketplace.ListedToken",
          "name": "",
          "type": "tuple"
        }
      ],
      "stateMutability": "view",
      "type": "function"
    },
    {
      "inputs": [],
      "name": "getMyNFTs",
      "outputs": [
        {
          "components": [
            {
              "internalType": "uint256",
              "name": "tokenId",
              "type": "uint256"
            },
            {
              "internalType": "address payable",
              "name": "owner",
              "type": "address"
            },
            {
              "internalType": "address payable",
              "name": "seller",
              "type": "address"
            },
            {
              "internalType": "uint256",
              "name": "price",
              "type": "uint256"
            },
            {
              "internalType": "bool",
              "name": "curreltlyListed",
              "type": "bool"
            }
          ],
          "internalType": "struct LotyMarketplace.ListedToken[]",
          "name": "",
          "type": "tuple[]"
        }
      ],
      "stateMutability": "view",
      "type": "function"
    },
    {
      "inputs": [
        {
          "internalType": "address",
          "name": "owner",
          "type": "address"
        },
        {
          "internalType": "address",
          "name": "operator",
          "type": "address"
        }
      ],
      "name": "isApprovedForAll",
      "outputs": [
        {
          "internalType": "bool",
          "name": "",
          "type": "bool"
        }
      ],
      "stateMutability": "view",
      "type": "function"
    },
    {
      "inputs": [],
      "name": "name",
      "outputs": [
        {
          "internalType": "string",
          "name": "",
          "type": "string"
        }
      ],
      "stateMutability": "view",
      "type": "function"
    },
    {
      "inputs": [
        {
          "internalType": "uint256",
          "name": "tokenId",
          "type": "uint256"
        }
      ],
      "name": "ownerOf",
      "outputs": [
        {
          "internalType": "address",
          "name": "",
          "type": "address"
        }
      ],
      "stateMutability": "view",
      "type": "function"
    },
    {
      "inputs": [
        {
          "internalType": "address",
          "name": "from",
          "type": "address"
        },
        {
          "internalType": "address",
          "name": "to",
          "type": "address"
        },
        {
          "internalType": "uint256",
          "name": "tokenId",
          "type": "uint256"
        }
      ],
      "name": "safeTransferFrom",
      "outputs": [],
      "stateMutability": "nonpayable",
      "type": "function"
    },
    {
      "inputs": [
        {
          "internalType": "address",
          "name": "from",
          "type": "address"
        },
        {
          "internalType": "address",
          "name": "to",
          "type": "address"
        },
        {
          "internalType": "uint256",
          "name": "tokenId",
          "type": "uint256"
        },
        {
          "internalType": "bytes",
          "name": "data",
          "type": "bytes"
        }
      ],
      "name": "safeTransferFrom",
      "outputs": [],
      "stateMutability": "nonpayable",
      "type": "function"
    },
    {
      "inputs": [
        {
          "internalType": "address",
          "name": "operator",
          "type": "address"
        },
        {
          "internalType": "bool",
          "name": "approved",
          "type": "bool"
        }
      ],
      "name": "setApprovalForAll",
      "outputs": [],
      "stateMutability": "nonpayable",
      "type": "function"
    },
    {
      "inputs": [
        {
          "internalType": "bytes4",
          "name": "interfaceId",
          "type": "bytes4"
        }
      ],
      "name": "supportsInterface",
      "outputs": [
        {
          "internalType": "bool",
          "name": "",
          "type": "bool"
        }
      ],
      "stateMutability": "view",
      "type": "function"
    },
    {
      "inputs": [],
      "name": "symbol",
      "outputs": [
        {
          "internalType": "string",
          "name": "",
          "type": "string"
        }
      ],
      "stateMutability": "view",
      "type": "function"
    },
    {
      "inputs": [
        {
          "internalType": "uint256",
          "name": "tokenId",
          "type": "uint256"
        }
      ],
      "name": "tokenURI",
      "outputs": [
        {
          "internalType": "string",
          "name": "",
          "type": "string"
        }
      ],
      "stateMutability": "view",
      "type": "function"
    },
    {
      "inputs": [
        {
          "internalType": "address",
          "name": "from",
          "type": "address"
        },
        {
          "internalType": "address",
          "name": "to",
          "type": "address"
        },
        {
          "internalType": "uint256",
          "name": "tokenId",
          "type": "uint256"
        }
      ],
      "name": "transferFrom",
      "outputs": [],
      "stateMutability": "nonpayable",
      "type": "function"
    },
    {
      "inputs": [
        {
          "internalType": "uint256",
          "name": "_listPrice",
          "type": "uint256"
        }
      ],
      "name": "updateListPrice",
      "outputs": [],
      "stateMutability": "payable",
      "type": "function"
    }
  ],
  "bytecode": "0x6080604052662386f26fc10000600a553480156200001c57600080fd5b5060408051808201825260078152661313d51653919560ca1b6020808301918252835180850190945260038452624c545960e81b908401528151919291620000679160009162000098565b5080516200007d90600190602084019062000098565b5050600780546001600160a01b03191633179055506200017b565b828054620000a6906200013e565b90600052602060002090601f016020900481019282620000ca576000855562000115565b82601f10620000e557805160ff191683800117855562000115565b8280016001018555821562000115579182015b8281111562000115578251825591602001919060010190620000f8565b506200012392915062000127565b5090565b5b8082111562000123576000815560010162000128565b600181811c908216806200015357607f821691505b602082108114156200017557634e487b7160e01b600052602260045260246000fd5b50919050565b61202c806200018b6000396000f3fe6080604052600436106101355760003560e01c806395d89b41116100ab578063b88d4fde1161006f578063b88d4fde14610349578063c322579c14610369578063c87b56dd1461037c578063e0391b091461039c578063e985e9c5146103b1578063ef2d1746146103fa57600080fd5b806395d89b41146102bf57806398c3df16146102d457806399ce6891146103015780639b1225c414610316578063a22cb4651461032957600080fd5b806342842e0e116100fd57806342842e0e1461020b578063629cb2e41461022b5780636352211e1461024d57806368f1945f1461026d57806370a082311461028c57806372b3b620146102ac57600080fd5b806301ffc9a71461013a57806306fdde031461016f578063081812fc14610191578063095ea7b3146101c957806323b872dd146101eb575b600080fd5b34801561014657600080fd5b5061015a610155366004611c49565b61040f565b60405190151581526020015b60405180910390f35b34801561017b57600080fd5b50610184610461565b6040516101669190611e15565b34801561019d57600080fd5b506101b16101ac366004611cd7565b6104f3565b6040516001600160a01b039091168152602001610166565b3480156101d557600080fd5b506101e96101e4366004611c20565b61051a565b005b3480156101f757600080fd5b506101e9610206366004611b32565b610635565b34801561021757600080fd5b506101e9610226366004611b32565b610666565b34801561023757600080fd5b50610240610681565b6040516101669190611dc7565b34801561025957600080fd5b506101b1610268366004611cd7565b6108c4565b34801561027957600080fd5b50600a545b604051908152602001610166565b34801561029857600080fd5b5061027e6102a7366004611ae6565b610924565b61027e6102ba366004611c81565b6109aa565b3480156102cb57600080fd5b50610184610a8d565b3480156102e057600080fd5b506102f46102ef366004611cd7565b610a9c565b6040516101669190611f0c565b34801561030d57600080fd5b506102f4610b06565b6101e9610324366004611cd7565b610b7d565b34801561033557600080fd5b506101e9610344366004611be6565b610cb5565b34801561035557600080fd5b506101e9610364366004611b6d565b610cc4565b6101e9610377366004611cd7565b610cf6565b34801561038857600080fd5b50610184610397366004611cd7565b610d5f565b3480156103a857600080fd5b50610240610e70565b3480156103bd57600080fd5b5061015a6103cc366004611b00565b6001600160a01b03918216600090815260056020908152604080832093909416825291909152205460ff1690565b34801561040657600080fd5b5061027e610fb7565b60006001600160e01b031982166380ac58cd60e01b148061044057506001600160e01b03198216635b5e139f60e01b145b8061045b57506301ffc9a760e01b6001600160e01b03198316145b92915050565b60606000805461047090611f5e565b80601f016020809104026020016040519081016040528092919081815260200182805461049c90611f5e565b80156104e95780601f106104be576101008083540402835291602001916104e9565b820191906000526020600020905b8154815290600101906020018083116104cc57829003601f168201915b5050505050905090565b60006104fe82610fc7565b506000908152600460205260409020546001600160a01b031690565b6000610525826108c4565b9050806001600160a01b0316836001600160a01b031614156105985760405162461bcd60e51b815260206004820152602160248201527f4552433732313a20617070726f76616c20746f2063757272656e74206f776e656044820152603960f91b60648201526084015b60405180910390fd5b336001600160a01b03821614806105b457506105b481336103cc565b6106265760405162461bcd60e51b815260206004820152603d60248201527f4552433732313a20617070726f76652063616c6c6572206973206e6f7420746f60448201527f6b656e206f776e6572206f7220617070726f76656420666f7220616c6c000000606482015260840161058f565b6106308383611029565b505050565b61063f3382611097565b61065b5760405162461bcd60e51b815260040161058f90611e28565b610630838383611115565b61063083838360405180602001604052806000815250610cc4565b6060600061068e60085490565b905060008080805b848110156107265733600b60006106ae846001611f1a565b81526020810191909152604001600020600101546001600160a01b03161480610701575033600b60006106e2846001611f1a565b81526020810191909152604001600020600201546001600160a01b0316145b1561071457610711600185611f1a565b93505b8061071e81611f99565b915050610696565b5060008367ffffffffffffffff81111561075057634e487b7160e01b600052604160045260246000fd5b60405190808252806020026020018201604052801561078957816020015b61077661198d565b81526020019060019003908161076e5790505b50905060005b858110156108ba5733600b60006107a7846001611f1a565b81526020810191909152604001600020600101546001600160a01b031614806107fa575033600b60006107db846001611f1a565b81526020810191909152604001600020600201546001600160a01b0316145b156108a85761080a816001611f1a565b6000818152600b6020908152604091829020825160a0810184528154815260018201546001600160a01b039081169382019390935260028201549092169282019290925260038201546060820152600482015460ff16151560808201528451929550909184908790811061088e57634e487b7160e01b600052603260045260246000fd5b60209081029190910101526108a4600186611f1a565b9450505b806108b281611f99565b91505061078f565b5095945050505050565b6000818152600260205260408120546001600160a01b03168061045b5760405162461bcd60e51b8152602060048201526018602482015277115490cdcc8c4e881a5b9d985b1a59081d1bdad95b88125160421b604482015260640161058f565b60006001600160a01b03821661098e5760405162461bcd60e51b815260206004820152602960248201527f4552433732313a2061646472657373207a65726f206973206e6f7420612076616044820152683634b21037bbb732b960b91b606482015260840161058f565b506001600160a01b031660009081526003602052604090205490565b6000600a5434146109fd5760405162461bcd60e51b815260206004820152601860248201527f506c656173652073656e6420656e6f756768204d415449430000000000000000604482015260640161058f565b60008211610a4d5760405162461bcd60e51b815260206004820152601b60248201527f5072696365206d75737420626520626967676572207468616e20300000000000604482015260640161058f565b610a5b600880546001019055565b6000610a6660085490565b9050610a723382611279565b610a7c8185611293565b610a86818461132d565b9392505050565b60606001805461047090611f5e565b610aa461198d565b506000908152600b6020908152604091829020825160a0810184528154815260018201546001600160a01b03908116938201939093526002820154909216928201929092526003820154606082015260049091015460ff161515608082015290565b610b0e61198d565b6000610b1960085490565b6000908152600b6020908152604091829020825160a0810184528154815260018201546001600160a01b03908116938201939093526002820154909216928201929092526003820154606082015260049091015460ff161515608082015292915050565b6000818152600b6020526040902060030154348114610bde5760405162461bcd60e51b815260206004820152601c60248201527f5072696365206d757374206265207468652061736b696e67206f6e6500000000604482015260640161058f565b6000828152600b602052604090206002810180546004909201805460ff191660011790556001600160a01b03198216331790556001600160a01b0316610c28600980546001019055565b610c33303385611115565b610c3d308461051a565b600754600a546040516001600160a01b039092169181156108fc0291906000818181858888f19350505050158015610c79573d6000803e3d6000fd5b506040516001600160a01b038216903480156108fc02916000818181858888f19350505050158015610caf573d6000803e3d6000fd5b50505050565b610cc03383836113ca565b5050565b610cce3383611097565b610cea5760405162461bcd60e51b815260040161058f90611e28565b610caf84848484611499565b6007546001600160a01b03163314610d5a5760405162461bcd60e51b815260206004820152602160248201527f4f6e6c79204f776e65722063616e2063616c6c20746869732066756e6374696f6044820152603760f91b606482015260840161058f565b600a55565b6060610d6a82610fc7565b60008281526006602052604081208054610d8390611f5e565b80601f0160208091040260200160405190810160405280929190818152602001828054610daf90611f5e565b8015610dfc5780601f10610dd157610100808354040283529160200191610dfc565b820191906000526020600020905b815481529060010190602001808311610ddf57829003601f168201915b505050505090506000610e1a60408051602081019091526000815290565b9050805160001415610e2d575092915050565b815115610e5f578082604051602001610e47929190611d5b565b60405160208183030381529060405292505050919050565b610e68846114cc565b949350505050565b60606000610e7d60085490565b905060008167ffffffffffffffff811115610ea857634e487b7160e01b600052604160045260246000fd5b604051908082528060200260200182016040528015610ee157816020015b610ece61198d565b815260200190600190039081610ec65790505b5090506000805b83811015610fae576000610efd826001611f1a565b6000818152600b6020908152604091829020825160a0810184528154815260018201546001600160a01b039081169382019390935260028201549092169282019290925260038201546060820152600482015460ff161515608082015286519293509091869086908110610f8157634e487b7160e01b600052603260045260246000fd5b6020908102919091010152610f97600185611f1a565b935050508080610fa690611f99565b915050610ee8565b50909392505050565b6000610fc260085490565b905090565b6000818152600260205260409020546001600160a01b03166110265760405162461bcd60e51b8152602060048201526018602482015277115490cdcc8c4e881a5b9d985b1a59081d1bdad95b88125160421b604482015260640161058f565b50565b600081815260046020526040902080546001600160a01b0319166001600160a01b038416908117909155819061105e826108c4565b6001600160a01b03167f8c5be1e5ebec7d5bd14f71427d1e84f3dd0314c0f7b2291e5b200ac8c7c3b92560405160405180910390a45050565b6000806110a3836108c4565b9050806001600160a01b0316846001600160a01b031614806110ea57506001600160a01b0380821660009081526005602090815260408083209388168352929052205460ff165b80610e685750836001600160a01b0316611103846104f3565b6001600160a01b031614949350505050565b826001600160a01b0316611128826108c4565b6001600160a01b03161461114e5760405162461bcd60e51b815260040161058f90611ec7565b6001600160a01b0382166111b05760405162461bcd60e51b8152602060048201526024808201527f4552433732313a207472616e7366657220746f20746865207a65726f206164646044820152637265737360e01b606482015260840161058f565b826001600160a01b03166111c3826108c4565b6001600160a01b0316146111e95760405162461bcd60e51b815260040161058f90611ec7565b600081815260046020908152604080832080546001600160a01b03199081169091556001600160a01b0387811680865260038552838620805460001901905590871680865283862080546001019055868652600290945282852080549092168417909155905184937fddf252ad1be2c89b69c2b068fc378daa952ba7f163c4a11628f55a4df523b3ef91a4505050565b610cc082826040518060200160405280600081525061153f565b6000828152600260205260409020546001600160a01b031661130e5760405162461bcd60e51b815260206004820152602e60248201527f45524337323155524953746f726167653a2055524920736574206f66206e6f6e60448201526d32bc34b9ba32b73a103a37b5b2b760911b606482015260840161058f565b60008281526006602090815260409091208251610630928401906119bb565b6040805160a081018252838152306020808301828152338486018181526060860188815260016080880181815260008c8152600b9097529890952096518755925193860180546001600160a01b039586166001600160a01b03199182161790915590516002870180549190951691161790925551600384015592516004909201805492151560ff1990931692909217909155610cc0919084611115565b816001600160a01b0316836001600160a01b0316141561142c5760405162461bcd60e51b815260206004820152601960248201527f4552433732313a20617070726f766520746f2063616c6c657200000000000000604482015260640161058f565b6001600160a01b03838116600081815260056020908152604080832094871680845294825291829020805460ff191686151590811790915591519182527f17307eab39ab6107e8899845ad3d59bd9653f200f220920489ca2b5937696c31910160405180910390a3505050565b6114a4848484611115565b6114b084848484611572565b610caf5760405162461bcd60e51b815260040161058f90611e75565b60606114d782610fc7565b60006114ee60408051602081019091526000815290565b9050600081511161150e5760405180602001604052806000815250610a86565b806115188461167f565b604051602001611529929190611d5b565b6040516020818303038152906040529392505050565b611549838361172a565b6115566000848484611572565b6106305760405162461bcd60e51b815260040161058f90611e75565b60006001600160a01b0384163b1561167457604051630a85bd0160e11b81526001600160a01b0385169063150b7a02906115b6903390899088908890600401611d8a565b602060405180830381600087803b1580156115d057600080fd5b505af1925050508015611600575060408051601f3d908101601f191682019092526115fd91810190611c65565b60015b61165a573d80801561162e576040519150601f19603f3d011682016040523d82523d6000602084013e611633565b606091505b5080516116525760405162461bcd60e51b815260040161058f90611e75565b805181602001fd5b6001600160e01b031916630a85bd0160e11b149050610e68565b506001949350505050565b6060600061168c836118b5565b600101905060008167ffffffffffffffff8111156116ba57634e487b7160e01b600052604160045260246000fd5b6040519080825280601f01601f1916602001820160405280156116e4576020820181803683370190505b5090508181016020015b600019016f181899199a1a9b1b9c1cb0b131b232b360811b600a86061a8153600a850494508461171d57611722565b6116ee565b509392505050565b6001600160a01b0382166117805760405162461bcd60e51b815260206004820181905260248201527f4552433732313a206d696e7420746f20746865207a65726f2061646472657373604482015260640161058f565b6000818152600260205260409020546001600160a01b0316156117e55760405162461bcd60e51b815260206004820152601c60248201527f4552433732313a20746f6b656e20616c7265616479206d696e74656400000000604482015260640161058f565b6000818152600260205260409020546001600160a01b03161561184a5760405162461bcd60e51b815260206004820152601c60248201527f4552433732313a20746f6b656e20616c7265616479206d696e74656400000000604482015260640161058f565b6001600160a01b038216600081815260036020908152604080832080546001019055848352600290915280822080546001600160a01b0319168417905551839291907fddf252ad1be2c89b69c2b068fc378daa952ba7f163c4a11628f55a4df523b3ef908290a45050565b60008072184f03e93ff9f4daa797ed6e38ed64bf6a1f0160401b83106118f45772184f03e93ff9f4daa797ed6e38ed64bf6a1f0160401b830492506040015b6d04ee2d6d415b85acef81000000008310611920576d04ee2d6d415b85acef8100000000830492506020015b662386f26fc10000831061193e57662386f26fc10000830492506010015b6305f5e1008310611956576305f5e100830492506008015b612710831061196a57612710830492506004015b6064831061197c576064830492506002015b600a831061045b5760010192915050565b6040805160a08101825260008082526020820181905291810182905260608101829052608081019190915290565b8280546119c790611f5e565b90600052602060002090601f0160209004810192826119e95760008555611a2f565b82601f10611a0257805160ff1916838001178555611a2f565b82800160010185558215611a2f579182015b82811115611a2f578251825591602001919060010190611a14565b50611a3b929150611a3f565b5090565b5b80821115611a3b5760008155600101611a40565b600067ffffffffffffffff80841115611a6f57611a6f611fca565b604051601f8501601f19908116603f01168101908282118183101715611a9757611a97611fca565b81604052809350858152868686011115611ab057600080fd5b858560208301376000602087830101525050509392505050565b80356001600160a01b0381168114611ae157600080fd5b919050565b600060208284031215611af7578081fd5b610a8682611aca565b60008060408385031215611b12578081fd5b611b1b83611aca565b9150611b2960208401611aca565b90509250929050565b600080600060608486031215611b46578081fd5b611b4f84611aca565b9250611b5d60208501611aca565b9150604084013590509250925092565b60008060008060808587031215611b82578081fd5b611b8b85611aca565b9350611b9960208601611aca565b925060408501359150606085013567ffffffffffffffff811115611bbb578182fd5b8501601f81018713611bcb578182fd5b611bda87823560208401611a54565b91505092959194509250565b60008060408385031215611bf8578182fd5b611c0183611aca565b915060208301358015158114611c15578182fd5b809150509250929050565b60008060408385031215611c32578182fd5b611c3b83611aca565b946020939093013593505050565b600060208284031215611c5a578081fd5b8135610a8681611fe0565b600060208284031215611c76578081fd5b8151610a8681611fe0565b60008060408385031215611c93578182fd5b823567ffffffffffffffff811115611ca9578283fd5b8301601f81018513611cb9578283fd5b611cc885823560208401611a54565b95602094909401359450505050565b600060208284031215611ce8578081fd5b5035919050565b60008151808452611d07816020860160208601611f32565b601f01601f19169290920160200192915050565b805182526020808201516001600160a01b039081169184019190915260408083015190911690830152606080820151908301526080908101511515910152565b60008351611d6d818460208801611f32565b835190830190611d81818360208801611f32565b01949350505050565b6001600160a01b0385811682528416602082015260408101839052608060608201819052600090611dbd90830184611cef565b9695505050505050565b6020808252825182820181905260009190848201906040850190845b81811015611e0957611df6838551611d1b565b9284019260a09290920191600101611de3565b50909695505050505050565b602081526000610a866020830184611cef565b6020808252602d908201527f4552433732313a2063616c6c6572206973206e6f7420746f6b656e206f776e6560408201526c1c881bdc88185c1c1c9bdd9959609a1b606082015260800190565b60208082526032908201527f4552433732313a207472616e7366657220746f206e6f6e20455243373231526560408201527131b2b4bb32b91034b6b83632b6b2b73a32b960711b606082015260800190565b60208082526025908201527f4552433732313a207472616e736665722066726f6d20696e636f72726563742060408201526437bbb732b960d91b606082015260800190565b60a0810161045b8284611d1b565b60008219821115611f2d57611f2d611fb4565b500190565b60005b83811015611f4d578181015183820152602001611f35565b83811115610caf5750506000910152565b600181811c90821680611f7257607f821691505b60208210811415611f9357634e487b7160e01b600052602260045260246000fd5b50919050565b6000600019821415611fad57611fad611fb4565b5060010190565b634e487b7160e01b600052601160045260246000fd5b634e487b7160e01b600052604160045260246000fd5b6001600160e01b03198116811461102657600080fdfea264697066735822122060e62a24e05a6695963a064fa90112305db6d1f99df0c7e2f6aef1abdd8fbe3c64736f6c63430008040033",
  "linkReferences": {},
  "deployedLinkReferences": {}
}